:100000000C9435000C945D000C945D000C945D0024
:100010000C945D000C945D000C945D000C945D00EC
:100020000C945D000C945D000C945D000C945D00DC
:100030000C945D000C945D000C945D000C945D00CC
:100040000C94A8020C945D000C94B4010C94E6018D
:100050000C945D000C945D000C945D000C945D00AC
:100060000C945D000C945D00160211241FBECFEFAE
:10007000D8E0DEBFCDBF11E0A0E0B1E0E2E7F7E0FD
:1000800002C005900D92A834B107D9F721E0A8E489
:10009000B1E001C01D92AE3EB207E1F710E0C5E34A
:1000A000D0E004C02197FE010E94B103C433D10700
:1000B000C9F70E9444020C94B7030C94000026E098
:1000C0004CE759ED61E070E088E491E00E944F0157
:1000D00060E071E088E491E00C94960266E171E0E2
:1000E00088E491E00E94960268EC70E080E090E085
:1000F0000C941703FC01918D228D892F90E0805C78
:100100009F4F821B91098F7399270895FC01918D50
:10011000828D981731F0828DE80FF11D858D90E06A
:1001200008958FEF9FEF0895FC01918D828D9817B0
:1001300061F0828DDF01A80FB11D5D968C91928DCB
:100140009F5F9F73928F90E008958FEF9FEF0895C8
:10015000FC01538D448D252F30E0842F90E0821BCD
:10016000930B541710F0CF960895019708958CE0E3
:1001700092E0892B49F080E090E0892B29F00E94E1
:100180000C0281110C9400000895FC01848DDF01A4
:10019000A80FB11DA35ABF4F2C91848D90E00196FA
:1001A0008F739927848FA689B7892C93A089B189E9
:1001B0008C9180648C93938D848D981306C00288F3
:1001C000F389E02D80818F7D80830895EF92FF92E7
:1001D0000F931F93CF93DF93EC0181E0888F9B8D6A
:1001E0008C8D981305C0E889F989808185FD24C02C
:1001F000F62E0B8D10E00F5F1F4F0F731127E02EAF
:100200008C8DE8120CC00FB607FCFACFE889F9898B
:10021000808185FFF5CFCE010E94C500F1CF8B8D87
:10022000FE01E80FF11DE35AFF4FF0820B8FEA89C0
:10023000FB898081806207C0EE89FF896083E8893D
:10024000F98980818064808381E090E0DF91CF91A3
:100250001F910F91FF90EF900895CF93DF93EC01E2
:10026000888D8823C9F0EA89FB89808185FD05C0D6
:10027000A889B9898C9186FD0FC00FB607FCF5CF10
:10028000808185FFF2CFA889B9898C9185FFEDCF58
:10029000CE010E94C500E7CFDF91CF910895CF92A4
:1002A000DF92EF92FF921F93CF93DF93EC016A01ED
:1002B0007B01122FE889F98982E080834115514E34
:1002C00061057105B1F060E079E08DE390E0A70190
:1002D00096010E948F03DA01C9010197A109B109B2
:1002E000B695A795979587959C01211580E13807CC
:1002F000A8F0E889F989108260E874E88EE190E05E
:10030000A70196010E948F03DA01C9010197A10993
:10031000B109B695A795979587959C01EC85FD85C4
:100320003083EE85FF852083188EEC89FD8910834C
:10033000EA89FB89808180618083EA89FB898081E9
:1003400088608083EA89FB89808180688083EA896C
:10035000FB8980818F7D8083DF91CF911F91FF90FA
:10036000EF90DF90CF9008951F920F920FB60F92EB
:1003700011242F938F939F93EF93FF93E091580154
:10038000F09159018081E0915E01F0915F0182FD61
:1003900012C09081809161018F5F8F732091620103
:1003A000821751F0E0916101F0E0E85BFE4F958F1C
:1003B0008093610101C08081FF91EF919F918F91A6
:1003C0002F910F900FBE0F901F9018951F920F92B4
:1003D0000FB60F9211242F933F934F935F936F9318
:1003E0007F938F939F93AF93BF93EF93FF9388E493
:1003F00091E00E94C500FF91EF91BF91AF919F9155
:100400008F917F916F915F914F913F912F910F90BD
:100410000FBE0F901F90189588E491E00E947A001B
:1004200021E0892B09F420E0822F0895E8E4F1E02F
:100430001382128288EE93E0A0E0B0E0848395837B
:10044000A683B7838AE291E09183808385EC90E074
:100450009587848784EC90E09787868780EC90E08E
:10046000918B808B81EC90E0938B828B82EC90E07F
:10047000958B848B86EC90E0978B868B118E128EF9
:10048000138E148E089508950E9453030E94430210
:100490000E945F00C7EBD0E00E946E002097E1F35E
:1004A0000E94B700F9CFCF92DF92EF92FF920F93A5
:1004B0001F93CF93DF936C017A018B01C0E0D0E0F2
:1004C000CE15DF0581F0D8016D918D01D601ED913A
:1004D000FC910190F081E02DC6010995892B11F066
:1004E0002196EECF7E01C701DF91CF911F910F9131
:1004F000FF90EF90DF90CF9008956115710579F02E
:10050000FB0101900020E9F73197AF01461B570B23
:10051000DC01ED91FC910280F381E02D099480E0F3
:1005200090E0089568E371E00C947D020F931F93AF
:10053000CF93DF93EC010E947D028C01CE010E94DB
:100540009202800F911FDF91CF911F910F9108951B
:100550001F920F920FB60F9211242F933F938F93F8
:100560009F93AF93BF938091E6019091E701A09193
:10057000E801B091E9013091E50123E0230F2D3727
:1005800020F40196A11DB11D05C026E8230F029697
:10059000A11DB11D2093E5018093E6019093E70131
:1005A000A093E801B093E9018091EA019091EB01F9
:1005B000A091EC01B091ED010196A11DB11D8093B8
:1005C000EA019093EB01A093EC01B093ED01BF9190
:1005D000AF919F918F913F912F910F900FBE0F90F0
:1005E0001F9018953FB7F8948091EA019091EB0124
:1005F000A091EC01B091ED0126B5A89B05C02F3F5D
:1006000019F00196A11DB11D3FBFBA2FA92F982F38
:100610008827820F911DA11DB11DBC01CD0142E0B3
:10062000660F771F881F991F4A95D1F708958F92FB
:100630009F92AF92BF92CF92DF92EF92FF926B01A7
:100640007C010E94F2024B015C01C114D104E1045F
:10065000F10401F10E948E030E94F202DC01CB0141
:1006600088199909AA09BB09883E9340A105B105DB
:1006700060F321E0C21AD108E108F10888EE880E83
:1006800083E0981EA11CB11CC114D104E104F10443
:1006900019F7DBCFFF90EF90DF90CF90BF90AF9036
:1006A0009F908F900895789484B5826084BD84B5BE
:1006B000816084BD85B5826085BD85B5816085BD5D
:1006C000EEE6F0E0808181608083E1E8F0E0108276
:1006D000808182608083808181608083E0E8F0E0B7
:1006E000808181608083E1EBF0E0808184608083A1
:1006F000E0EBF0E0808181608083EAE7F0E08081D8
:100700008460808380818260808380818160808337
:100710008081806880831092C10008950895A1E2CD
:100720001A2EAA1BBB1BFD010DC0AA1FBB1FEE1F6B
:10073000FF1FA217B307E407F50720F0A21BB30BB6
:10074000E40BF50B661F771F881F991F1A9469F732
:1007500060957095809590959B01AC01BD01CF018E
:100760000895EE0FFF1F0590F491E02D0994F89481
:02077000FFCFB9
:10077200476F6F646D6F726E696E6720205E286DC1
:100782006F6F6E212900476F6F646E69676874200E
:100792006D6F6F6E210000000000E6005302A8009A
:1007A2002D017A00940086000D0A006E616E0069C8
:0807B2006E66006F7666000020
:00000001FF
