:100000000C9435000C945D000C945D000C945D0024
:100010000C945D000C945D000C945D000C945D00EC
:100020000C945D000C945D000C945D000C945D00DC
:100030000C945D000C945D000C945D000C945D00CC
:100040000C9461030C945D000C94E4010C94160272
:100050000C945D000C945D000C945D000C945D00AC
:100060000C945D000C945D00460211241FBECFEF7E
:10007000D8E0DEBFCDBF11E0A0E0B1E0ECE6F8E0F3
:1000800002C005900D92A231B107D9F721E0A2E19B
:10009000B1E001C01D92A63CB207E1F710E0C5E354
:1000A000D0E004C02197FE010E940804C433D107A8
:1000B000C9F70E9474020C9434040C94000026E0EA
:1000C00040E855E260E070E080E291E00C947F014E
:1000D000CF93DF9380E291E00E94AA00892BF1F098
:1000E00080E291E00E94C40080931F018F3279F07A
:1000F0002091120130911301F901EB5EFE4F8083D4
:100100002F5F3F4F309313012093120107C081E00E
:100110008093140110921301109212018091140126
:100120008823A9F085E191E00E940E04EC0142E0F1
:1001300050E0BC0180E291E00E945A0340E150E0AF
:10014000BE0180E291E00E945A0310921401DF91F7
:10015000CF910895FC01918D228D892F90E0805CD4
:100160009F4F821B91098F7399270895FC01918DF0
:10017000828D981731F0828DE80FF11D858D90E00A
:1001800008958FEF9FEF0895FC01918D828D981750
:1001900061F0828DDF01A80FB11D5D968C91928D6B
:1001A0009F5F9F73928F90E008958FEF9FEF089568
:1001B000FC01538D448D252F30E0842F90E0821B6D
:1001C000930B541710F0CF960895019708958CE380
:1001D00092E0892B49F080E090E0892B29F00E9481
:1001E0003C0281110C9400000895FC01848DDF0114
:1001F000A80FB11DA35ABF4F2C91848D90E001969A
:100200008F739927848FA689B7892C93A089B18988
:100210008C9180648C93938D848D981306C0028892
:10022000F389E02D80818F7D80830895EF92FF9286
:100230000F931F93CF93DF93EC0181E0888F9B8D09
:100240008C8D981305C0E889F989808185FD24C0CB
:10025000F62E0B8D10E00F5F1F4F0F731127E02E4E
:100260008C8DE8120CC00FB607FCFACFE889F9892B
:10027000808185FFF5CFCE010E94F500F1CF8B8DF7
:10028000FE01E80FF11DE35AFF4FF0820B8FEA8960
:10029000FB898081806207C0EE89FF896083E889DD
:1002A000F98980818064808381E090E0DF91CF9143
:1002B0001F910F91FF90EF900895CF93DF93EC0182
:1002C000888D8823C9F0EA89FB89808185FD05C076
:1002D000A889B9898C9186FD0FC00FB607FCF5CFB0
:1002E000808185FFF2CFA889B9898C9185FFEDCFF8
:1002F000CE010E94F500E7CFDF91CF910895CF9214
:10030000DF92EF92FF921F93CF93DF93EC016A018C
:100310007B01122FE889F98982E080834115514ED3
:1003200061057105B1F060E079E08DE390E0A7012F
:1003300096010E94E603DA01C9010197A109B109FA
:10034000B695A795979587959C01211580E138076B
:10035000A8F0E889F989108260E874E88EE190E0FD
:10036000A70196010E94E603DA01C9010197A109DC
:10037000B109B695A795979587959C01EC85FD8564
:100380003083EE85FF852083188EEC89FD891083EC
:10039000EA89FB89808180618083EA89FB89808189
:1003A00088608083EA89FB89808180688083EA890C
:1003B000FB8980818F7D8083DF91CF911F91FF909A
:1003C000EF90DF90CF9008951F920F920FB60F928B
:1003D00011242F938F939F93EF93FF93E09130011C
:1003E000F09131018081E0913601F091370182FD79
:1003F00012C09081809139018F5F8F7320913A01F3
:10040000821751F0E0913901F0E0E05EFE4F958FE8
:100410008093390101C08081FF91EF919F918F916D
:100420002F910F900FBE0F901F9018951F920F9253
:100430000FB60F9211242F933F934F935F936F93B7
:100440007F938F939F93AF93BF93EF93FF9380E23C
:1004500091E00E94F500FF91EF91BF91AF919F91C4
:100460008F917F916F915F914F913F912F910F905D
:100470000FBE0F901F90189580E291E00E94AA0095
:1004800021E0892B09F420E0822F0895E0E2F1E0D9
:100490001382128288EE93E0A0E0B0E0848395831B
:1004A000A683B78384E091E09183808385EC90E01C
:1004B0009587848784EC90E09787868780EC90E02E
:1004C000918B808B81EC90E0938B828B82EC90E01F
:1004D000958B848B86EC90E0978B868B118E128E99
:1004E000138E148E089508950E94AB030E94730228
:1004F0000E945F00C7EED0E00E9468002097E1F301
:100500000E94E700F9CFCF92DF92EF92FF920F9314
:100510001F93CF93DF936C017A018B01C0E0D0E091
:10052000CE15DF0581F0D8016D918D01D601ED91D9
:10053000FC910190F081E02DC6010995892B11F005
:100540002196EECF7E01C701DF91CF911F910F91D0
:10055000FF90EF90DF90CF9008956115710579F0CD
:10056000FB0101900020E9F73197AF01461B570BC3
:10057000DC01ED91FC910280F381E02D099480E093
:1005800090E00895DC01ED91FC910190F081E02D67
:1005900009948F929F92AF92BF92EF92FF920F9326
:1005A0001F93CF93DF93CDB7DEB7A1970FB6F89423
:1005B000DEBF0FBECDBF7C01FA01CB0119A22230F4
:1005C00008F42AE08E010F5D1F4F822E912CA12C82
:1005D000B12CBF01A50194010E94E603F901CA01F3
:1005E000015011096A3010F4605D01C0695CD801E6
:1005F0006C93232B242B252B61F7B801C7010E9494
:10060000AD02A1960FB6F894DEBF0FBECDBFDF914D
:10061000CF911F910F91FF90EF90BF90AF909F905F
:100620008F900895CF92DF92EF92FF920F931F93D6
:10063000CF93DF932115310581F4DC01ED91FC911D
:100640000190F081E02D642FDF91CF911F910F91E8
:10065000FF90EF90DF90CF9009942A30310501F59B
:1006600077FF1DC06A017B01EC016DE20E94C202AE
:100670008C0144275527BA014C195D096E097F0981
:100680002AE0CE010E94C902800F911FDF91CF9115
:100690001F910F91FF90EF90DF90CF9008952AE087
:1006A000DF91CF911F910F91FF90EF90DF90CF904E
:1006B0000C94C9029A01AB01770F660B770B0C946F
:1006C00012031F920F920FB60F9211242F933F9394
:1006D0008F939F93AF93BF938091BE019091BF0181
:1006E000A091C001B091C1013091BD0123E0230F61
:1006F0002D3720F40196A11DB11D05C026E8230F5A
:100700000296A11DB11D2093BD018093BE0190935F
:10071000BF01A093C001B093C1018091C20190912B
:10072000C301A091C401B091C5010196A11DB11DE5
:100730008093C2019093C301A093C401B093C501FB
:10074000BF91AF919F918F913F912F910F900FBECD
:100750000F901F901895789484B5826084BD84B5FD
:10076000816084BD85B5826085BD85B5816085BDAC
:10077000EEE6F0E0808181608083E1E8F0E01082C5
:10078000808182608083808181608083E0E8F0E006
:10079000808181608083E1EBF0E0808184608083F0
:1007A000E0EBF0E0808181608083EAE7F0E0808127
:1007B0008460808380818260808380818160808387
:1007C0008081806880831092C1000895A1E21A2E72
:1007D000AA1BBB1BFD010DC0AA1FBB1FEE1FFF1FE5
:1007E000A217B307E407F50720F0A21BB30BE40B35
:1007F000F50B661F771F881F991F1A9469F760957C
:100800007095809590959B01AC01BD01CF01089535
:10081000EE0FFF1F0590F491E02D0994FC0188274D
:100820009927E89421912032E9F3293010F02E30F5
:10083000C8F32B3241F02D3239F4689404C00E9481
:100840002C04820F911D219120532A30C0F31EF4F5
:10085000909581959F4F08957AE0979F902D879F5F
:0C086000802D910D11240895F894FFCF15
:10086C000000000016018302D8005D01AA00C4003C
:02087C00B600C4
:00000001FF
