S01A00004C656420626C696E6B2076646976696465722E7372656348
S11300000C9434000C9449000C9449000C9449005D
S11300100C9449000C9449000C9449000C94490038
S11300200C9449000C9449000C9449000C94490028
S11300300C9449000C9449000C9449000C94490018
S11300400C9449000C9449000C9449000C94490008
S11300500C9449000C9449000C9449000C944900F8
S11300600C9449000C94490011241FBECFEFD8E032
S1130070DEBFCDBF11E0A0E0B1E0E2EEF1E002C0EE
S113008005900D92AC30B107D9F70E9494000C94FE
S1130090EF000C940000EAE7F0E080818760808341
S11300A0ACE7B0E08C9180648C938081806880831D
S11300B08081806480830895ECE7F0E09081907FF4
S11300C090839081892B8083EAE7F0E080818064CB
S11300D08083808186FDFDCF8091780090917900A6
S11300E008951092C50083E38093C40088E180934F
S11300F0C10086E08093C2000895E0ECF0E09081B6
S113010095FFFDCF8093C6000895CF93DF93EC0154
S11301108881882331F021960E947D008991811184
S1130120FBCFDF91CF910895CF93DF9300D000D020
S1130130CDB7DEB70E944B000E94710081E084B904
S113014081E00E945C008C014AE0BE016F5F7F4F3A
S11301500E94C50080E091E00E948500CE010196D6
S11301600E9485000115124010F0289A01C02898B9
S11301708DE00E947D008FEF91EE24E0815090404D
S11301802040E1F700C00000DBCFBB27FB0155276F
S1130190AA27880F991FAA1FA41710F0A41B8395E0
S11301A05051B9F7A05DAA3308F0A95DA193009757
S11301B079F7B111B1931192CB010C94DF00DC01FA
S11301C0FC01672F71917723E1F7329704C07C918A
S11301D06D9370836291AE17BF07C8F30895F894C6
S10501E0FFCF4B
S10F01E276616C7565206973203A00009A
S9030000FC
