:100000000C94D8000C9400010C9400010C94000195
:100010000C9400010C9400010C9400010C9400015C
:100020000C9400010C9400010C9400010C9400014C
:100030000C9400010C9400010C9400010C9400013C
:100040000C9443050C9400010C9411050C94EB04E2
:100050000C9400010C9400010C9400010C9400011C
:100060000C9400010C940001005EBCE2613FDD8352
:10007000C29C7E20A3FD1F419DC3217FFCA2401E88
:100080005F01E3BD3E6082DC237D9FC1421CFEA078
:10009000E1BF5D0380DE3C62BEE0025CDF81633D68
:1000A0007C22C09E1D43A1FF4618FAA427799BC558
:1000B00084DA3866E5BB5907DB856739BAE4065848
:1000C0001947A5FB7826C49A653BD987045AB8E638
:1000D000A7F91B45C6987A24F8A6441A99C7257B28
:1000E0003A6486D85B05E7B98CD2306EEDB3510F18
:1000F0004E10F2AC2F7193CD114FADF3702ECC9208
:10010000D38D6F31B2EC0E50AFF1134DCE90722CF7
:100110006D33D18F0C52B0EE326C8ED0530DEFB1E7
:10012000F0AE4C1291CF2D73CA947628ABF51749D7
:100130000856B4EA6937D58B5709EBB536688AD4C7
:1001400095CB2977F4AA4816E9B7550B88D6346AB7
:100150002B7597C94A14F6A8742AC896154BA9F7A7
:10016000B6E80A54D7896B35000000002500280046
:100170002B0000000000240027002A0000000000DF
:1001800023002600290004040404040404040202D9
:100190000202020203030303030301020408102006
:1001A00040800102040810200102040810208D057F
:1001B00011241FBECFEFD8E0DEBFCDBF11E0A0E01D
:1001C000B1E0ECE7F5E102C005900D92A438B1076B
:1001D000D9F722E0A4E8B1E001C01D92AB34B20728
:1001E000E1F710E0C8EDD0E004C02197FE010E94C5
:1001F000B10AC73DD107C9F70E942C060C94BC0A6E
:100200000C9400000895CF92DF92EF92FF920F932B
:100210001F93CF93DF936C017A018B01C0E0D0E094
:10022000CE15DF0589F0D8016D918D01D601ED91D4
:10023000FC910190F081E02DC6010995892B11F404
:100240007E0102C02196ECCFC701DF91CF911F91B3
:100250000F91FF90EF90DF90CF900895089580E088
:1002600090E00895FC01538D448D252F30E0842FBC
:1002700090E0821B930B541710F0CF9608950197CE
:100280000895FC01918D828D981761F0828DDF01B8
:10029000A80FB11D5D968C91928D9F5F9F73928F79
:1002A00090E008958FEF9FEF0895FC01918D828D6E
:1002B000981731F0828DE80FF11D858D90E008953B
:1002C0008FEF9FEF0895FC01918D228D892F90E093
:1002D000805C9F4F821B91098F73992708958DE849
:1002E00091E00E94630121E0892B09F420E0822F34
:1002F0000895FC01848DDF01A80FB11DA35ABF4FE3
:100300002C91848D90E001968F739927848FA68914
:10031000B7892C93A089B1898C9180648C93938D3B
:10032000848D981306C00288F389E02D80818F7D2B
:1003300080830895EF92FF920F931F93CF93DF93E3
:10034000EC0181E0888F9B8D8C8D981305C0E88926
:10035000F989808185FD24C0F62E0B8D10E00F5F9A
:100360001F4F0F731127E02E8C8DE8120CC00FB6B3
:1003700007FCFACFE889F989808185FFF5CFCE01A6
:100380000E947901F1CF8B8DFE01E80FF11DE35A38
:10039000FF4FF0820B8FEA89FB898081806207C062
:1003A000EE89FF896083E889F98980818064808390
:1003B00081E090E0DF91CF911F910F91FF90EF903E
:1003C0000895CF93DF93EC01888D8823C9F0EA89E3
:1003D000FB89808185FD05C0A889B9898C9186FD3E
:1003E0000FC00FB607FCF5CF808185FFF2CFA8893B
:1003F000B9898C9185FFEDCFCE010E947901E7CFBD
:10040000DF91CF91089580E090E0892B29F00E9440
:100410006F0181110C94000008953FB7F89480910A
:10042000890190918A01A0918B01B0918C0126B530
:10043000A89B05C02F3F19F00196A11DB11D3FBF1C
:10044000BA2FA92F982F8827820F911DA11DB11DAA
:10045000BC01CD0142E0660F771F881F991F4A95A6
:10046000D1F708958F929F92AF92BF92CF92DF9271
:10047000EF92FF926B017C010E940D024B015C0127
:10048000C114D104E104F104F1F00E940D02DC0179
:10049000CB0188199909AA09BB09883E9340A10597
:1004A000B10570F321E0C21AD108E108F10888EE25
:1004B000880E83E0981EA11CB11CC114D104E10474
:1004C000F10419F7DDCFFF90EF90DF90CF90BF9050
:1004D000AF909F908F900895DC01E0E0615038F07C
:1004E0008D91E827F0E0E859FF4FE491F7CF8E2F88
:1004F0000895FC0190810180F281E02DF8948181C2
:10050000892B81832281892F809528232283A7E04C
:10051000B0E01197F1F7218182238183A3E2B0E05B
:100520001197F1F780817894EFECF0E03197F1F7D3
:10053000982381E009F480E00895FC019081018016
:10054000F281E02D892F809560FF12C0F8942281FE
:10055000822382838181892B8183A3E2B0E011977A
:10056000F1F78281982B9283789487ED90E011C007
:10057000F8942281822382838181892B8183AFEF4A
:10058000B0E01197F1F78281982B928378948FE0F5
:1005900090E00197F1F70895CF92DF92EF92FF92EA
:1005A0000F931F93CF93DF931F92CDB7DEB76C01EC
:1005B000E62E08E010E0FF24F39461E08F2D8E21F9
:1005C00009F460E0C60149830E949D02FF0C0150BE
:1005D000110949810115110581F7411115C0F894E0
:1005E000D6011196ED91FC91129791818C91809595
:1005F000892381831196ED91FC91129792818C91C0
:1006000080958923828378940F90DF91CF911F91F9
:100610000F91FF90EF90DF90CF900895CF92DF92EF
:10062000EF92FF920F931F93CF93DF931F92CDB75B
:10063000DEB78C01F62E40E065E579830E94CC029E
:10064000CF2C7981D72E760188E0E80EF11CF601D7
:1006500061916F0140E0C8010E94CC02CE14DF041A
:10066000B1F70F90DF91CF911F910F91FF90EF9015
:10067000DF90CF900895FC0190810180F281E02D00
:10068000F8948181292F20958223818378948DE7A6
:1006900043E050E0815021F1DA011197F1F7308108
:1006A0003923C1F3F8948281822382838181892B4B
:1006B00081837894ABE7B7E01197F1F7F8948181E3
:1006C00028232183A3E1B1E01197F1F780819823DA
:1006D00081E009F080E07894E3E6F6E03197F1F705
:1006E0000895AF92BF92CF92DF92EF92FF920F9355
:1006F0001F93CF93DF93EC018B0180912F02909198
:1007000030020E943B038823A1F1BE0180912F0299
:10071000909130020E940E0340E06EEB80912F0218
:10072000909130020E94CC02E801680189E0C80E75
:10073000D11CA0902F02B090300288E0E82EF12C5E
:1007400001E010E0C5010E9479028111102B000F19
:1007500081E0E81AF108B1F71993CC15DD0549F7E6
:1007600080912F02909130020E943B0391E08130F2
:1007700009F090E0892FDF91CF911F910F91FF90A9
:10078000EF90DF90CF90BF90AF900895CF93DF931D
:10079000CDB7DEB729970FB6F894DEBF0FBECDBF39
:1007A000FC012081203119F1BE016F5F7F4F0E9453
:1007B0007103882379F068E0CE0101960E946C02F3
:1007C0009985891307C008C0803458F08F3569F0C7
:1007D0008F3769F080E00CC08D818F33A9F78AE0F4
:1007E00007C08F31B9F789E003C08BE001C08CE00E
:1007F00029960FB6F894DEBF0FBECDBFDF91CF9123
:100800000895AF92BF92CF92DF92EF92FF920F9333
:100810001F93CF93DF931F92CDB7DEB75C01E62E17
:10082000D72EFC01858581115DC0C5010E943B0367
:10083000811105C0F5011386158614866BC040E052
:1008400060EFC5010E94CC0201E0F12CC12C11E047
:10085000C5010E947902682FC50169830E9479024F
:100860006981613019F48130B9F433C04F2D50E003
:1008700068131BC0F5018385181730F4E40FF51FCA
:100880008381802349F402C0181731F060E01930E9
:1008900058F4F501148708C0F501EF0DF11D8381AF
:1008A000802B838361E009C0C12EF501E40FF51FA1
:1008B0009381802F809589238383C5010E949D02A7
:1008C0001F5F000F11F4F39401E0F7E0FF1508F04B
:1008D000BFCF113438F0F501C386C11015C081E0D7
:1008E000858712C0F50113861586148680E0D50130
:1008F0001396EE2DFD2D9501255F3F4F9D91919310
:10090000A217B307D9F706C0F5018381882351F3F5
:1009100081E0EDCF0F90DF91CF911F910F91FF906C
:10092000EF90DF90CF90BF90AF900895009769F05F
:10093000FC0101900020E9F73197AF01481B590BEA
:10094000BC018DE891E00C94030180E090E00895F3
:100950008F929F92AF92BF920F931F93CF93DF938B
:10096000CDB7DEB7A1970FB6F894DEBF0FBECDBFEF
:1009700019A2423008F44AE08E010F5D1F4F842E09
:10098000912CA12CB12CA50194010E947B0AE62F89
:10099000B901CA0101501109EA3014F4E05D01C047
:1009A000E95CD801EC93232B242B252B61F7C8019C
:1009B0000E949604A1960FB6F894DEBF0FBECDBF7D
:1009C000DF91CF911F910F91BF90AF909F908F902B
:1009D00008950E94B70A1F920F920FB60F9211242A
:1009E0002F933F934F935F936F937F938F939F9337
:1009F000AF93BF93EF93FF938DE891E00E9479014D
:100A0000FF91EF91BF91AF919F918F917F916F91E6
:100A10005F914F913F912F910F900FBE0F901F90BC
:100A200018951F920F920FB60F9211242F938F9348
:100A30009F93EF93FF93E0919D01F0919E01808140
:100A4000E091A301F091A40182FD12C090818091F8
:100A5000A6018F5F8F732091A701821751F0E0915B
:100A6000A601F0E0E357FE4F958F8093A60101C0E9
:100A70008081FF91EF919F918F912F910F900FBEE9
:100A80000F901F9018951F920F920FB60F9211247E
:100A90002F933F938F939F93AF93BF938091850143
:100AA00090918601A0918701B091880130918401D5
:100AB00023E0230F2D3720F40196A11DB11D05C0A1
:100AC00026E8230F0296A11DB11D20938401809377
:100AD000850190938601A0938701B093880180914E
:100AE000890190918A01A0918B01B0918C010196AE
:100AF000A11DB11D8093890190938A01A0938B0160
:100B0000B0938C01BF91AF919F918F913F912F91A5
:100B10000F900FBE0F901F901895CF93DF931092F8
:100B2000900110928F0188EE93E0A0E0B0E08093F6
:100B3000910190939201A0939301B09394018AE064
:100B400091E090938E0180938D0185EC90E09093DD
:100B50009A018093990184EC90E090939C0180939A
:100B60009B0180EC90E090939E0180939D0181EC2D
:100B700090E09093A00180939F0182EC90E090938D
:100B8000A2018093A10186EC90E09093A401809350
:100B9000A3011092A6011092A7011092A801109231
:100BA000A901ECE9F1E02491E8E8F1E084918823DF
:100BB000C1F090E0880F991FFC01EE58FE4FC591DF
:100BC000D491FC01E859FE4FA591B4919FB7F894D8
:100BD0008881E22FE0958E2388838C91E823EC9323
:100BE0009FBFECE9F1E0E491E0933D02E8E8F1E039
:100BF000E491F0E0EE0FFF1FE458FE4F85919491D1
:100C000090933F0280933E021092480210924A0253
:100C100010924902E8E4F2E0129282E0E034F80730
:100C2000D9F782E091E090933C0280933B028DE300
:100C300092E09093300280932F0210922E02109235
:100C40002A0289E080932B0281E080932C0280931A
:100C50002D02DF91CF910895CF93DF93CDB7DEB70B
:100C600061970FB6F894DEBF0FBECDBF789484B500
:100C7000826084BD84B5816084BD85B5826085BD98
:100C800085B5816085BD80916E00816080936E0026
:100C90001092810080918100826080938100809118
:100CA00081008160809381008091800081608093C9
:100CB00080008091B10084608093B1008091B00089
:100CC00081608093B00080917A00846080937A0084
:100CD00080917A00826080937A0080917A008160AE
:100CE00080937A0080917A00806880937A001092D5
:100CF000C100E0919D01F0919E0182E08083E0912E
:100D00009D01F0919E011082E0919901F0919A016C
:100D10001082E0919B01F0919C0180E18083109210
:100D2000A501E091A101F091A20186E08083E0910C
:100D30009F01F091A001808180618083E0919F01FB
:100D4000F091A001808188608083E0919F01F09103
:100D5000A001808180688083E0919F01F091A001D3
:100D600080818F7D808388E191E00E94960483E4F6
:100D700091E00E949604E0912F02F09130021386D8
:100D800015861486DF011B9633961E92AE17BF0799
:100D9000E1F710922E0211E0BE01665F7F4F809155
:100DA0002F02909130020E940104882309F4F4C0BC
:100DB00067E0CE010A960E946C0299898913ECCFF4
:100DC00080912A02811127C080912F0290913002D8
:100DD0000E943B03BE01665F7F4F80912F0290917E
:100DE00030020E940E0340E064EB80912F0290914C
:100DF00030020E94CC0280912F02909130020E941A
:100E00007902F82E80912F02909130020E943B03CC
:100E1000FF2009F48AC1BE016F5F7F4FCE010A96A1
:100E20000E947103F0902B02CE010A960E94C60325
:100E30008F1518F480912B0204C0CE010A960E94EF
:100E4000C60380932B0280912E028F5F80932E0227
:100E5000A3CFE0912B02E950E33008F0BEC0F0E0F0
:100E6000EE0FFF1FE050FF4F60817181072E000CD5
:100E7000880B990B0E94320282E691E00E94960450
:100E800083E491E00E94960487E691E00E94960434
:100E9000E0912F02F0913002138615861486DF014F
:100EA0001B96CF0103961E92A817B907E1F7BE0162
:100EB000665F7F4FCF010E940104882309F490C030
:100EC00067E0CE010A960E946C029989891388C056
:100ED000BE016F5F7F4FCE010A960E947103882387
:100EE00009F428C168E0CE0101960E946C02998540
:100EF000891320C1698188E0689FB00111248A812B
:100F0000282F30E0322F2227330F330F330F262BB9
:100F1000372B8A85803109F00BC1688570E08F819D
:100F2000AB01481B5109CA019695982F88279795C0
:100F300087950E94670A60517109207F53E0220F54
:100F4000331F5A95E1F7620F731F613854EE75072E
:100F50000CF446C0072E000C880B990B0E94400928
:100F600020E030E040E05CE30E94F5096B017C0189
:100F7000A7019601C701B6010E94620A8823B9F150
:100F800088E791E00E94960468EE73E080E090E0CC
:100F90000E9432020E94030286E491E00E949604BD
:100FA00080912F02909130020E943B0340E06CEC54
:100FB00080912F02909130020E94CC0240912A022F
:100FC00064E480912F02909130020E94CC028091C3
:100FD0002C02882309F450CF3CCF6EEE72E046CF4E
:100FE000C12CD12C9EEFE92E92ECF92EC1CF4601F7
:100FF0005701E894B7F82FEF3FEF4FE75FE7C501E0
:10100000B4010E94620A81110DC02FEF3FEF4FE73C
:101010005FE7C501B4010E940A0918161CF48CE7A9
:1010200091E0B0CF2FEF3FEF4FE75FE4C701B6018C
:101030000E94F00918161CF480E891E0A3CF2FEF6E
:101040003FEF4FE75FECC701B6010E940A0987FD39
:10105000F3CF20E030E0A901C701B6010E940A09E0
:1010600087FF0FC0E0918D01F0918E010190F0811A
:10107000E02D6DE28DE891E00995F7FAF094F7F82C
:10108000F0942AE037ED43EA5BE3C701B6010E9422
:101090009E084B015C010E940F096B017C010E94BC
:1010A0003E099B01AC01C501B4010E949D084B01A2
:1010B0005C014AE0C701B6010E94A804E0918D01DD
:1010C000F0918E010190F081E02D6EE28DE891E0CB
:1010D000099520E030E040E251E4C501B4010E94EE
:1010E000F5094B015C010E940F096B01E12CF12C09
:1010F0004AE0C701B6010E94A804C701B6010E94D8
:101100003E099B01AC01C501B4010E949D0820E08D
:1011100030E040E251E40E94F5090E940F0980E0AE
:1011200090E04AE00E94A8042FCF10932A0273CEC9
:10113000B9010BCF60E874EE08CF5058BB27AA273F
:101140000E94B5080C94B6090E94A80938F00E94C4
:10115000AF0920F039F49F3F19F426F40C94A50947
:101160000EF4E095E7FB0C949F09E92F0E94C70954
:1011700058F3BA17620773078407950720F079F4CC
:10118000A6F50C94E9090EF4E0950B2EBA2FA02DCC
:101190000B01B90190010C01CA01A0011124FF2724
:1011A000591B99F0593F50F4503E68F11A16F0401F
:1011B000A22F232F342F4427585FF3CF469537951E
:1011C0002795A795F0405395C9F77EF41F16BA0BE3
:1011D000620B730B840BBAF09150A1F0FF0FBB1F91
:1011E000661F771F881FC2F70EC0BA0F621F731FDA
:1011F000841F48F4879577956795B795F7959E3F37
:1012000008F0B0CF9395880F08F09927EE0F9795C7
:10121000879508950E947B0908F481E008950E9453
:10122000CF0988F09F5798F0B92F9927B751B0F0A0
:10123000E1F0660F771F881F991F1AF0BA95C9F75A
:1012400014C0B13091F00E94E909B1E008950C9406
:10125000E909672F782F8827B85F39F0B93FCCF3B9
:10126000869577956795B395D9F73EF490958095D7
:10127000709561957F4F8F4F9F4F0895E89409C0F7
:1012800097FB3EF490958095709561957F4F8F4FB9
:101290009F4F9923A9F0F92F96E9BB279395F695CF
:1012A000879577956795B795F111F8CFFAF4BB0F4D
:1012B00011F460FF1BC06F5F7F4F8F4F9F4F16C0B1
:1012C000882311F096E911C0772321F09EE8872F3B
:1012D000762F05C0662371F096E8862F70E060E0F7
:1012E0002AF09A95660F771F881FDAF7880F969570
:1012F000879597F90895990F0008550FAA0BE0E814
:10130000FEEF16161706E807F907C0F012161306C7
:10131000E407F50798F0621B730B840B950B39F407
:101320000A2661F0232B242B252B21F408950A266D
:1013300009F4A140A6958FEF811D811D089597F9AD
:101340009F6780E870E060E008959FEF80EC08956B
:1013500000240A9416161706180609060895002494
:101360000A9412161306140605060895092E03940E
:10137000000C11F4882352F0BB0F40F4BF2B11F482
:1013800060FF04C06F5F7F4F8F4F9F4F089557FDE1
:101390009058440F551F59F05F3F71F04795880FE3
:1013A00097FB991F61F09F3F79F08795089512167A
:1013B00013061406551FF2CF4695F1DF08C0161626
:1013C00017061806991FF1CF8695710561050894D7
:1013D0000895E894BB2766277727CB0197F90895EE
:1013E0000E947B0908F48FEF08950E94080A0C946C
:1013F000B6090E94A80938F00E94AF0920F0952391
:1014000011F00C949F090C94A50911240C94EA097D
:101410000E94C70970F3959FC1F3950F50E0551FC7
:10142000629FF001729FBB27F00DB11D639FAA2739
:10143000F00DB11DAA1F649F6627B00DA11D661F88
:10144000829F2227B00DA11D621F739FB00DA11DA9
:10145000621F839FA00D611D221F749F3327A00D63
:10146000611D231F849F600D211D822F762F6A2FFF
:1014700011249F5750409AF0F1F088234AF0EE0F64
:10148000FF1FBB1F661F771F881F91505040A9F791
:101490009E3F510580F00C949F090C94EA095F3F30
:1014A000E4F3983ED4F3869577956795B795F795CD
:1014B000E7959F5FC1F7FE2B880F911D9695879545
:1014C00097F908950E947B09880B990B089597FB63
:1014D000072E16F4009407D077FD09D00E949D0ACC
:1014E00007FC05D03EF4909581959F4F0895709527
:1014F00061957F4F0895A1E21A2EAA1BBB1BFD0127
:101500000DC0AA1FBB1FEE1FFF1FA217B307E407E2
:10151000F50720F0A21BB30BE40BF50B661F771F3A
:10152000881F991F1A9469F760957095809590951A
:101530009B01AC01BD01CF010895AA1BBB1B51E16A
:1015400007C0AA1FBB1FA617B70710F0A61BB70B33
:10155000881F991F5A95A9F780959095BC01CD01D8
:101560000895EE0FFF1F0590F491E02D099481E09E
:0C15700090E0F8940C94BC0AF894FFCFB3
:10157C005E00BC007701000000009A0103013201FB
:10158C00E10163014101550144616C6C61732054AC
:10159C00656D706572617475726520494320436F87
:1015AC006E74726F6C204C69627261727920446542
:1015BC006D6F000D0A002052657175657374696E4C
:1015CC00672074656D7065726174757265732E2E0B
:1015DC002E00444F4E450054656D706572617475F4
:1015EC0072652069733A20006E616E00696E660048
:0415FC006F766600A0
:00000001FF
