:100000000C942A000C943F000C943F000C943F0089
:100010000C943F000C943F000C943F000C943F0064
:100020000C943F000C943F000C943F000C943F0054
:100030000C943F000C943F000C943F000C943F0044
:100040000C943F000C943F000C943F000C943F0034
:100050000C943F0011241FBECFE5D8E0DEBFCDBF1A
:1000600010E0A0E6B0E0EAE0F1E002C005900D92F9
:10007000AA36B107D9F70E9441000C9483000C9472
:100080000000CF93DF93CDB7DEB72A970FB6F89471
:10009000DEBF0FBECDBF8AE0E0E6F0E0DE011196E4
:1000A00001900D928A95E1F78FEF84BB81BB9E0191
:1000B000255F3F4F41E092E0DE01119621C042BB37
:1000C0008C9185BB5FEF61EE84E0515060408040D1
:1000D000E1F700C00000909892BB819185BB5FEF73
:1000E00061EE84E0515060408040E1F700C00000C4
:1000F00091982E173F0719F711962A173B07E1F23F
:0A010000FE013196DCCFF894FFCF2A
:0A010A003F065B4F666D7D07FF6F37
:00000001FF
