S01B00004243442D375365676D656E74446973706C61792E7372656333
S11300000C942A000C9434000C9434000C943400A6
S11300100C9434000C9434000C9434000C9434008C
S11300200C9434000C9434000C9434000C9434007C
S11300300C9434000C9434000C9434000C9434006C
S11300400C9434000C9434000C9434000C9434005C
S11300500C94340011241FBECFE5D8E0DEBFCDBF21
S11300600E9436000C943E000C9400008FEF84BB79
S113007087BB84E690E00197F1F7FBCFF894FFCFBC
S9030000FC
