:100000000C9462000C948A000C948A000C948A0070
:100010000C948A000C948A000C948A000C948A0038
:100020000C948A000C948A000C948A000C948A0028
:100030000C948A000C948A000C948A000C948A0018
:100040000C94AD040C948A000C947B040C9455041D
:100050000C948A000C948A000C948A000C948A00F8
:100060000C948A000C948A000000000024002700F1
:100070002A0000000000250028002B0000000000DE
:1000800023002600290004040404040404040202DA
:100090000202020203030303030301020408102007
:1000A0004080010204081020010204081020000012
:1000B0000008000201000003040700000000000027
:1000C0000000F70411241FBECFEFD8E0DEBFCDBF84
:1000D00011E0A0E0B1E0EEE6F3E102C005900D9280
:1000E000AC33B107D9F722E0ACE3B1E001C01D9217
:1000F000A230B207E1F710E0C2E6D0E004C02197D9
:10010000FE010E94AA09C136D107C9F70E94420523
:100110000C94B5090C940000E091EA01F091EB0118
:100120000190F081E02D682F8AEE91E00994CF9242
:10013000DF92EF92FF920F931F93CF93DF936C01A7
:100140007A018B01C0E0D0E0CE15DF0589F0D8013F
:100150006D918D01D601ED91FC910190F081E02D22
:10016000C6010995892B11F47E0102C02196ECCFBE
:10017000C701DF91CF911F910F91FF90EF90DF901A
:10018000CF900895FC01538D448D252F30E0842FAE
:1001900090E0821B930B541710F0CF9608950197AF
:1001A0000895FC01918D828D981761F0828DDF0199
:1001B000A80FB11D5D968C91928D9F5F9F73928F5A
:1001C00090E008958FEF9FEF0895FC01918D828D4F
:1001D000981731F0828DE80FF11D858D90E008951C
:1001E0008FEF9FEF0895FC01918D228D892F90E074
:1001F000805C9F4F821B91098F73992708958DE42E
:1002000091E00E94F30021E0892B09F420E0822F85
:100210000895FC01848DDF01A80FB11DA35ABF4FC3
:100220002C91848D90E001968F739927848FA689F5
:10023000B7892C93A089B1898C9180648C93938D1C
:10024000848D981306C00288F389E02D80818F7D0C
:1002500080830895EF92FF920F931F93CF93DF93C4
:10026000EC0181E0888F9B8D8C8D981305C0E88907
:10027000F989808185FD24C0F62E0B8D10E00F5F7B
:100280001F4F0F731127E02E8C8DE8120CC00FB694
:1002900007FCFACFE889F989808185FFF5CFCE0187
:1002A0000E940901F1CF8B8DFE01E80FF11DE35A89
:1002B000FF4FF0820B8FEA89FB898081806207C043
:1002C000EE89FF896083E889F98980818064808371
:1002D00081E090E0DF91CF911F910F91FF90EF901F
:1002E0000895CF93DF93EC01888D8823C9F0EA89C4
:1002F000FB89808185FD05C0A889B9898C9186FD1F
:100300000FC00FB607FCF5CF808185FFF2CFA8891B
:10031000B9898C9185FFEDCFCE010E940901E7CF0D
:10032000DF91CF91089580E090E0892B29F00E9421
:10033000FF0081110C9400000895833081F028F4AF
:10034000813099F08230A1F008958730A9F088308B
:10035000B9F08430D1F4809180008F7D03C080910A
:1003600080008F7780938000089584B58F7702C0D6
:1003700084B58F7D84BD08958091B0008F7703C0D0
:100380008091B0008F7D8093B0000895CF93DF936C
:10039000282F30E0F901E255FF4F8491F901E6562C
:1003A000FF4FD491F901EA57FF4FC491CC2391F04C
:1003B00081110E949D01EC2FF0E0EE0FFF1FE45829
:1003C000FF4FA591B491EC91ED2381E090E021F4F1
:1003D00080E002C080E090E0DF91CF9108951F930C
:1003E000CF93DF93282F30E0F901E255FF4F84913E
:1003F000F901E656FF4FD491F901EA57FF4FC49136
:10040000CC23C9F0162F81110E949D01EC2FF0E042
:10041000EE0FFF1FEE58FF4FA591B4918FB7F894E0
:10042000111105C09C91ED2FE095E92302C0EC91DC
:10043000ED2BEC938FBFDF91CF911F910895CF9358
:10044000DF9390E0FC01E656FF4F2491FC01EA5750
:10045000FF4F8491882361F190E0880F991FFC0180
:10046000E859FF4FC591D491FC01EE58FF4FA5917B
:10047000B491611109C09FB7F894888120958223B7
:100480008883EC912E230BC0623061F49FB7F894FF
:100490003881822F809583238883EC912E2B2C9397
:1004A0009FBF06C08FB7F894E8812E2B28838FBF9B
:1004B000DF91CF9108953FB7F894809141019091D9
:1004C0004201A0914301B091440126B5A89B05C00B
:1004D0002F3F19F00196A11DB11D3FBFBA2FA92FC3
:1004E000982F8827820F911DA11DB11DBC01CD0140
:1004F00042E0660F771F881F991F4A95D1F708952C
:100500008F929F92AF92BF92CF92DF92EF92FF9223
:100510006B017C010E945B024B015C01C114D104A0
:10052000E104F104F1F00E945B02DC01CB018819C7
:100530009909AA09BB09883E9340A105B10570F34A
:1005400021E0C21AD108E108F10888EE880E83E0A4
:10055000981EA11CB11CC114D104E104F10419F7C7
:10056000DDCFFF90EF90DF90CF90BF90AF909F9046
:100570008F900895CF93DF93EC0160E08E810E940D
:10058000EF0161E08E810E94EF0160E08E810E94A8
:10059000EF018BE891E00197F1F7DF91CF9108959A
:1005A000CF92DF92EF92FF920F931F93CF93DF933F
:1005B0007C016C0187E0C80ED11CC0E0D0E0062FA2
:1005C00010E0B8010C2E02C0759567950A94E2F709
:1005D0006170F60181916F010E94EF012196C43094
:1005E000D10579F7C701DF91CF911F910F91FF904E
:1005F000EF90DF90CF900C94BA02CF92DF92EF92FF
:10060000FF920F931F93CF93DF93EC01F62E642F8D
:100610008C810E94EF018D818F3F19F060E00E9474
:10062000EF018F850F2D10E084FF25C06E0187E05C
:10063000C80ED11CE12CF12CB8010E2C02C075950E
:1006400067950A94E2F76170F60181916F010E944B
:10065000EF01FFEFEF1AFF0A88E0E816F10461F7F7
:10066000CE01DF91CF911F910F91FF90EF90DF901E
:10067000CF900C94BA02B80184E0759567958A957D
:10068000E1F7CE010E94D0026F2DCE01DF91CF9114
:100690001F910F91FF90EF90DF90CF900C94D002BC
:1006A00041E00E94FD0281E090E0089540E00C945A
:1006B000FD02EF92FF920F931F93CF93DF93EC0114
:1006C000623018F08F8588608F876B8B1C8A80E47E
:1006D0008D8B80E18E8B80E58F8B61E08C810E9419
:1006E0001F028D818F3F19F061E00E941F0261E0BF
:1006F0008E810E941F027E0187E0E80EF11C00E05F
:1007000010E08F8584FD03C084E090E002C088E0A3
:1007100090E0081719074CF461E0F70181917F011F
:100720000E941F020F5F1F4FECCF8BE39DE00197EC
:10073000F1F760E08C810E94EF0160E08E810E9401
:10074000EF018D818F3F19F060E00E94EF016F850E
:1007500064FD1DC063E0CE010E94D0020BE416E4EC
:10076000C8010197F1F763E0CE010E94D002C801F1
:100770000197F1F763E0CE010E94D00283E592E099
:100780000197F1F762E0CE010E94D00216C06062CC
:10079000CE010E9456038BE496E40197F1F76F8532
:1007A0006062CE010E94560383E592E00197F1F763
:1007B0006F856062CE010E9456036F856062CE0134
:1007C0000E94560384E0888B6CE0CE010E945603A1
:1007D00061E0CE010E9456038BE39FE10197F1F7A0
:1007E00082E0898B66E0CE01DF91CF911F910F915E
:1007F000FF90EF900C945603089580E090E00895E8
:10080000009769F0FC0101900020E9F73197AF01F2
:10081000481B590BBC018AEE91E00C94970080E0D4
:1008200090E008958F929F92AF92BF920F931F9383
:10083000CF93DF93CDB7DEB7A1970FB6F894DEBFA5
:100840000FBECDBF19A2423008F44AE08E010F5D01
:100850001F4F842E912CA12CB12CA50194010E9434
:100860008809E62FB901CA0101501109EA3014F4D0
:10087000E05D01C0E95CD801EC93232B242B252BF0
:1008800061F7C8010E940004A1960FB6F894DEBF7C
:100890000FBECDBFDF91CF911F910F91BF90AF9051
:1008A0009F908F9008950E94B0091F920F920FB6EB
:1008B0000F9211242F933F934F935F936F937F93E6
:1008C0008F939F93AF93BF93EF93FF938DE491E04A
:1008D0000E940901FF91EF91BF91AF919F918F917C
:1008E0007F916F915F914F913F912F910F900FBE2C
:1008F0000F901F9018951F920F920FB60F92112410
:100900002F938F939F93EF93FF93E0915D01F0916D
:100910005E018081E0916301F091640182FD12C06B
:100920009081809166018F5F8F732091670182179C
:1009300051F0E0916601F0E0E35BFE4F958F80930C
:10094000660101C08081FF91EF919F918F912F915E
:100950000F900FBE0F901F9018951F920F920FB619
:100960000F9211242F933F938F939F93AF93BF9335
:1009700080913D0190913E01A0913F01B0914001D5
:1009800030913C0123E0230F2D3720F40196A11D67
:10099000B11D05C026E8230F0296A11DB11D2093AD
:1009A0003C0180933D0190933E01A0933F01B093A1
:1009B00040018091410190914201A0914301B09189
:1009C00044010196A11DB11D809341019093420104
:1009D000A0934301B0934401BF91AF919F918F9138
:1009E0003F912F910F900FBE0F901F901895EDE43F
:1009F000F1E01382128288EE93E0A0E0B0E08483FD
:100A00009583A683B78388E091E09183808385EC0A
:100A100090E09587848784EC90E09787868780ECC8
:100A200090E0918B808B81EC90E0938B828B82ECB9
:100A300090E0958B848B86EC90E0978B868B118E63
:100A4000128E138E148EEAEEF1E0138212828AE186
:100A500091E0918380838CE084838FEF85838BE0AA
:100A6000868385E0878384E0808783E0818782E0D6
:100A700082871386148615861686178661E0CF0155
:100A80000C945903789484B5826084BD84B58160E8
:100A900084BD85B5826085BD85B5816085BD809149
:100AA0006E00816080936E001092810080918100C1
:100AB00082608093810080918100816080938100B9
:100AC000809180008160809380008091B10084607B
:100AD0008093B1008091B00081608093B0008091DC
:100AE0007A00846080937A0080917A00826080939B
:100AF0007A0080917A00816080937A0080917A00F8
:100B0000806880937A001092C10060E08AE00E94C1
:100B10001F0260E089E00E941F0260E088E00E94FE
:100B20001F0261E087E00E941F0260E08FE00E94E8
:100B30001F02E0915D01F0915E0182E08083E0910F
:100B40005901F0915A011082E0915B01F0915C0132
:100B50008FEC808310926501E0916101F091620158
:100B600086E08083E0915F01F09160018081806187
:100B70008083E0915F01F0916001808188608083D3
:100B8000E0915F01F0916001808180688083E09155
:100B90005F01F091600180818F7D808362E08AEE49
:100BA00091E00E94590364EF71E080E090E00E94C0
:100BB0008002C1E48AE00E94C6016C0188E00E94C4
:100BC000C6017C0189E00E94C601CA94CD2851F477
:100BD00020910201309103012F5F3F4F30930301B9
:100BE00020930201EA94EF2851F420910201309100
:100BF0000301215031093093030120930201019731
:100C000041F480910201909103019093010180933E
:100C100000016091000170910101072E000C880B0A
:100C2000990B0E9461089B01AC0160914901709190
:100C30004A0180914B0190914C010E94110987FD5E
:100C40000BC061E087E00E94EF0164EF71E080E09B
:100C500090E00E94800204C060E087E00E94EF0103
:100C6000C0937C0080917A00806480937A008091A8
:100C70007A0086FDFCCF609178008091790070E069
:100C8000782B072E000C880B990B0E94610820E03E
:100C900030E04AEF53E40E94160920E030EC4FE7C1
:100CA00054E40E94BE07609345017093460180930F
:100CB0004701909348016093490170934A018093E2
:100CC0004B0190934C01E1E08091FD018111E0E046
:100CD000E195F0E0E651FE4F648960688AEE91E0AC
:100CE0000E94560382E291E00E940004C0904901F4
:100CF000D0904A01E0904B01F0904C01A701960181
:100D0000C701B6010E948309882319F08FE291E0A0
:100D10001AC046015701E894B7F82FEF3FEF4FE7AD
:100D20005FE7C501B4010E94830981110FC02FEF55
:100D30003FEF4FE75FE7C501B4010E94B9071816FE
:100D40002CF483E391E00E94000472C02FEF3FEF88
:100D50004FE75FE4C701B6010E94110918161CF4A1
:100D600087E391E0F0CF2FEF3FEF4FE75FECC70154
:100D7000B6010E94B90787FDF3CF20E030E0A9015A
:100D8000C701B6010E94B90787FF07C08DE20E9424
:100D90008C00F7FAF094F7F8F0942AE037ED43EA84
:100DA0005BE3C701B6010E944D074B015C010E9445
:100DB00030086B017C010E945F089B01AC01C501FA
:100DC000B4010E944C074B015C014AE0C701B60127
:100DD0000E9412048EE20E948C0020E030E040E28B
:100DE00051E4C501B4010E9416094B015C010E9447
:100DF00030086B01E12CF12C4AE0C701B6010E94DA
:100E00001204C701B6010E945F089B01AC01C50135
:100E1000B4010E944C0720E030E040E251E40E941F
:100E200016090E94300880E090E04AE00E94120417
:100E3000E091FD01E23010F4E15001C0E1E0F0E0AA
:100E4000E651FE4F648960688AEE91E00E94560385
:100E5000C0900201D09003010D2C000CEE08FF0899
:100E6000F7FE0CC08DE20E948C0066277727CB012D
:100E70006C197D098E099F094AE003C04AE0C70149
:100E8000B6010E94120468EE73E080E090E00E94D8
:100E900080020E9493018ECE5058BB27AA270E9441
:100EA00064070C94D7080E94C90838F00E94D00843
:100EB00020F039F49F3F19F426F40C94C6080EF480
:100EC000E095E7FB0C94C008E92F0E94E80858F36E
:100ED000BA17620773078407950720F079F4A6F51F
:100EE0000C940A090EF4E0950B2EBA2FA02D0B01DD
:100EF000B90190010C01CA01A0011124FF27591B5F
:100F000099F0593F50F4503E68F11A16F040A22F64
:100F1000232F342F4427585FF3CF469537952795D5
:100F2000A795F0405395C9F77EF41F16BA0B620BD4
:100F3000730B840BBAF09150A1F0FF0FBB1F661F1B
:100F4000771F881FC2F70EC0BA0F621F731F841F5E
:100F500048F4879577956795B795F7959E3F08F084
:100F6000B0CF9395880F08F09927EE0F9795879546
:100F700008950E949C0808F481E008950E94D20719
:100F80000C94D7080E94D00858F00E94C90840F07D
:100F900029F45F3F29F00C94C00851110C940B09FF
:100FA0000C94C6080E94E80868F39923B1F355230E
:100FB00091F3951B550BBB27AA276217730784076C
:100FC00038F09F5F5F4F220F331F441FAA1FA9F302
:100FD00035D00E2E3AF0E0E832D091505040E695F0
:100FE000001CCAF72BD0FE2F29D0660F771F881F51
:100FF000BB1F261737074807AB07B0E809F0BB0B44
:10100000802DBF01FF2793585F4F3AF09E3F510557
:1010100078F00C94C0080C940B095F3FE4F3983E01
:10102000D4F3869577956795B795F7959F5FC9F740
:10103000880F911D9695879597F90895E1E0660FC1
:10104000771F881FBB1F621773078407BA0720F03A
:10105000621B730B840BBA0BEE1F88F7E0950895A3
:101060000E94F00888F09F5798F0B92F9927B75140
:10107000B0F0E1F0660F771F881F991F1AF0BA953C
:10108000C9F714C0B13091F00E940A09B1E0089587
:101090000C940A09672F782F8827B85F39F0B93F79
:1010A000CCF3869577956795B395D9F73EF49095EF
:1010B0008095709561957F4F8F4F9F4F0895E8946D
:1010C00009C097FB3EF490958095709561957F4F90
:1010D0008F4F9F4F9923A9F0F92F96E9BB2793953E
:1010E000F695879577956795B795F111F8CFFAF44E
:1010F000BB0F11F460FF1BC06F5F7F4F8F4F9F4F7F
:1011000016C0882311F096E911C0772321F09EE8DC
:10111000872F762F05C0662371F096E8862F70E042
:1011200060E02AF09A95660F771F881FDAF7880F1C
:101130009695879597F90895990F0008550FAA0B72
:10114000E0E8FEEF16161706E807F907C0F01216DA
:101150001306E407F50798F0621B730B840B950BDD
:1011600039F40A2661F0232B242B252B21F4089532
:101170000A2609F4A140A6958FEF811D811D0895CF
:1011800097F99F6780E870E060E008959FEF80EC3A
:10119000089500240A9416161706180609060895DD
:1011A00000240A9412161306140605060895092E43
:1011B0000394000C11F4882352F0BB0F40F4BF2BB2
:1011C00011F460FF04C06F5F7F4F8F4F9F4F0895F2
:1011D00057FD9058440F551F59F05F3F71F04795E8
:1011E000880F97FB991F61F09F3F79F087950895CD
:1011F000121613061406551FF2CF4695F1DF08C0EC
:10120000161617061806991FF1CF86957105610508
:1012100008940895E894BB2766277727CB0197F9B0
:1012200008950E949C0808F48FEF08950E942909F0
:101230000C94D7080E94C90838F00E94D00820F00A
:10124000952311F00C94C0080C94C60811240C943A
:101250000B090E94E80870F3959FC1F3950F50E0C9
:10126000551F629FF001729FBB27F00DB11D639F58
:10127000AA27F00DB11DAA1F649F6627B00DA11DFE
:10128000661F829F2227B00DA11D621F739FB00DA4
:10129000A11D621F839FA00D611D221F749F332714
:1012A000A00D611D231F849F600D211D822F762FAD
:1012B0006A2F11249F5750409AF0F1F088234AF08A
:1012C000EE0FFF1FBB1F661F771F881F91505040F6
:1012D000A9F79E3F510580F00C94C0080C940B09AF
:1012E0005F3FE4F3983ED4F3869577956795B7957D
:1012F000F795E7959F5FC1F7FE2B880F911D969597
:10130000879597F908950E949C08880B990B08957A
:10131000A1E21A2EAA1BBB1BFD010DC0AA1FBB1FF9
:10132000EE1FFF1FA217B307E407F50720F0A21B6B
:10133000B30BE40BF50B661F771F881F991F1A94D8
:1013400069F760957095809590959B01AC01BD0102
:10135000CF010895EE0FFF1F0590F491E02D099441
:0E13600081E090E0F8940C94B509F894FFCF6A
:10136E001E001E00000000002A019700C20071013D
:10137E00F300D100E5000000000050039700FD03CC
:10138E00FC03696E20446567726565433D20006EFF
:0C139E00616E00696E66006F76660000EC
:107E0000112484B714BE81FFF0D085E080938100F7
:107E100082E08093C00088E18093C10086E0809377
:107E2000C20080E18093C4008EE0C9D0259A86E02C
:107E300020E33CEF91E0309385002093840096BBD3
:107E4000B09BFECF1D9AA8958150A9F7CC24DD24C4
:107E500088248394B5E0AB2EA1E19A2EF3E0BF2EE7
:107E6000A2D0813461F49FD0082FAFD0023811F036
:107E7000013811F484E001C083E08DD089C08234E0
:107E800011F484E103C0853419F485E0A6D080C0E4
:107E9000853579F488D0E82EFF2485D0082F10E0AE
:107EA000102F00270E291F29000F111F8ED06801E7
:107EB0006FC0863521F484E090D080E0DECF843638
:107EC00009F040C070D06FD0082F6DD080E0C81688
:107ED00080E7D80618F4F601B7BEE895C0E0D1E017
:107EE00062D089930C17E1F7F0E0CF16F0E7DF06D8
:107EF00018F0F601B7BEE89568D007B600FCFDCFD4
:107F0000A601A0E0B1E02C9130E011968C91119780
:107F100090E0982F8827822B932B1296FA010C0160
:107F200087BEE89511244E5F5F4FF1E0A038BF0790
:107F300051F7F601A7BEE89507B600FCFDCF97BE46
:107F4000E89526C08437B1F42ED02DD0F82E2BD052
:107F50003CD0F601EF2C8F010F5F1F4F84911BD097
:107F6000EA94F801C1F70894C11CD11CFA94CF0C13
:107F7000D11C0EC0853739F428D08EE10CD085E9AC
:107F80000AD08FE07ACF813511F488E018D01DD067
:107F900080E101D065CF982F8091C00085FFFCCF94
:107FA0009093C60008958091C00087FFFCCF809118
:107FB000C00084FD01C0A8958091C6000895E0E648
:107FC000F0E098E1908380830895EDDF803219F02E
:107FD00088E0F5DFFFCF84E1DECF1F93182FE3DFCA
:107FE0001150E9F7F2DF1F91089580E0E8DFEE27F6
:047FF000FF270994CA
:027FFE00040479
:0400000300007E007B
:00000001FF
