S01A000061746D656761333220696E746572727570742E7372656329
S11300000C942A000C943C000C943C000C943C008E
S11300100C943C000C943C000C943C000C943C006C
S11300200C943C000C943C000C943C000C943E005A
S11300300C943C000C943C000C943C000C943C004C
S11300400C943C000C943C000C943C000C943C003C
S11300500C943C0011241FBECFE5D8E0DEBFCDBF19
S113006020E0A0E6B0E001C01D92A136B207E1F79E
S11300700E945B000C9464000C9400001F920F9289
S11300800FB60F9211248F939F93809160008F5F1E
S113009080936000809160008B3730F01092600094
S11300A092B381E0892782BB9F918F910F900FBEFD
S11300B00F901F9018958FEF81BB84E083BF81E080
S10F00C088BF89BF7894FFCFF894FFCF6D
S9030000FC
