S00D00006C646B6C642E737265630C
S11300000C9434000C943E000C943E000C943E007E
S11300100C943E000C943E000C943E000C943E0064
S11300200C943E000C943E000C943E000C943E0054
S11300300C943E000C943E000C943E000C943E0044
S11300400C943E000C943E000C943E000C943E0034
S11300500C943E000C943E000C943E000C943E0024
S11300600C943E000C943E0011241FBECFEFD8E048
S1130070DEBFCDBF0E9483000C94C0000C9400002E
S11300801092C50083E38093C40088E18093C1008B
S113009086E08093C2000895E0ECF0E0908195FF43
S11300A0FDCF8093C6000895CF93DF93EC01888140
S11300B0882331F021960E944C0089918111FBCF55
S11300C08DE00E944C00DF91CF910895CF93DF9390
S11300D0CDB7DEB761970FB6F894DEBF0FBECDBFC4
S11300E04AE0BE016F5F7F4F0E949600CE010196E9
S11300F00E94540061960FB6F894DEBF0FBECDBFC8
S1130100DF91CF9108950E944000C4E6D0E0CE0173
S11301100E9466002FEF80E792E0215080409040DB
S1130120E1F700C00000219791F7EFCFBB27FB0157
S11301305527AA27880F991FAA1FA41710F0A41BDC
S113014083955051B9F7A05DAA3308F0A95DA19336
S1130150009779F7B111B1931192CB010C94B000CF
S1130160DC01FC01672F71917723E1F7329704C01A
S11301707C916D9370836291AE17BF07C8F30895A5
S1070180F894FFCF1D
S9030000FC
