:100000000C9434000C9451000C9451000C94510049
:100010000C9451000C9451000C9451000C9451001C
:100020000C9451000C9451000C9451000C9451000C
:100030000C9451000C9451000C9451000C945100FC
:100040000C9451000C9451000C9451000C945100EC
:100050000C9451000C9451000C9451000C945100DC
:100060000C9451000C94510011241FBECFEFD8E026
:10007000DEBFCDBF11E0A0E0B1E0E0EAF2E002C0F7
:1000800005900D92AC3BB107D9F721E0ACEBB1E0A4
:1000900001C01D92AC3BB207E1F70E949C000C949A
:1000A0004E010C940000EAE7F0E0808187608083D5
:1000B000ACE7B0E08C9180648C9380818068808311
:1000C0008081806480830895ECE7F0E09081907FE8
:1000D00090839081892B8083EAE7F0E080818064BF
:1000E0008083808186FDFDCF80917800909179009A
:1000F00008951092C50083E38093C40088E1809343
:10010000C10086E08093C2000895E0ECF0E09081A9
:1001100095FFFDCF8093C6000895CF93DF93EC0148
:100120008881882331F021960E9485008991811170
:10013000FBCFDF91CF910895CF93DF93CDB7DEB79B
:10014000C85CD1090FB6F894DEBF0FBECDBF0E94C8
:1001500053000E9479008FEF84B96894DD24D1F8B0
:1001600080E00E9464008C0181E00E9464007C01B8
:10017000025011094AE0BE016B597F4FC8019695A4
:1001800087950E9424014AE0BE016F5F7F4FC7013F
:100190000E94240180E091E00E948D0086E391E0BE
:1001A0000E948D00CE018B599F4F0E948D008DE4DF
:1001B00091E00E948D008DE00E9485008FE491E027
:1001C0000E948D00CE0101960E948D008DE00E945C
:1001D00085000839110570F081E085B985E691E068
:1001E0000E948D008DE00E94850084E791E00E94CE
:1001F0008D0008C0289887E891E00E948D008DE06E
:100200000E94850026E9E216F10430F4D5B884E9AD
:1002100091E00E948D0005C029988DEA91E00E942E
:100220008D008DE00E9485008FEF95EA2EE08150D1
:1002300090402040E1F700C000008DE00E94850062
:100240008DE00E9485008CCFBB27FB015527AA2794
:10025000880F991FAA1FA41710F0A41B8395505153
:10026000B9F7A05DAA3308F0A95DA193009779F7CB
:10027000B111B1931192CB010C943E01DC01FC0150
:10028000672F71917723E1F7329704C07C916D93CA
:1002900070836291AE17BF07C8F30895F894FFCF3B
:1002A00077656C636F6D6520746F204175746F2086
:1002B000726F6F6D2068756D69646966696572201B
:1002C000616E64206C69676874696E672073797306
:1002D00074656D200D0054656D7065726174757282
:1002E000652076616C7565206973203A004300547F
:1002F0006865206C69676874206F757473696465DC
:100300002069733A0074656D70206973204849470D
:10031000482121006D6F746F72207475726E696E62
:1003200067206F6E200D006D6F746F7220697320EF
:100330006F6666004C69676874732061726520742B
:1003400075726E696E67206F6E200D20004C6967B4
:0C03500068747320617265206F6666009F
:00000001FF
