S01700004763634170706C69636174696F6E372E7372656355
S11300000C9434000C9449000C9449000C9449005D
S11300100C9449000C9449000C9449000C94490038
S11300200C9449000C9449000C9449000C94490028
S11300300C9449000C9449000C9449000C94490018
S11300400C9449000C9449000C9449000C94490008
S11300500C9449000C9449000C9449000C944900F8
S11300600C9449000C94490011241FBECFEFD8E032
S1130070DEBFCDBF11E0A0E0B1E0EEE8F1E002C0E8
S113008005900D92A030B107D9F70E9488000C9416
S1130090C5000C9400001092C50083E38093C40053
S11300A088E18093C10086E08093C2000895E0EC6B
S11300B0F0E0908195FFFDCF8093C6000895CF9323
S11300C0DF93EC018881882331F021960E94570048
S11300D089918111FBCF8DE00E945700DF91CF9170
S11300E00895CF93DF9300D000D0CDB7DEB74AE0B8
S11300F0BE016F5F7F4F0E949B00CE0101960E945C
S11301005F000F900F900F900F90DF91CF910895A3
S11301100E944B00C2E3D0E0CE010E9471002FEF99
S113012080E792E0215080409040E1F700C0000059
S1130130219791F7EFCFBB27FB015527AA27880FFB
S1130140991FAA1FA41710F0A41B83955051B9F747
S1130150A05DAA3308F0A95DA193009779F7B111C6
S1130160B1931192CB010C94B500DC01FC01672F13
S113017071917723E1F7329704C07C916D9370837A
S11101806291AE17BF07C8F30895F894FFCF3D
S9030000FC
