S00E000068656C6C6F322E73726563D0
S11300000C942A000C9434000C9434000C943400A6
S11300100C9434000C9434000C9434000C9434008C
S11300200C9434000C9434000C9434000C9434007C
S11300300C9434000C9434000C9434000C9434006C
S11300400C9434000C9434000C9434000C9434005C
S11300500C94340011241FBECFE5D8E0DEBFCDBF21
S11300600E9436000C9488000C94000081B38FEF3A
S113007081BB61E070E020E030E042B3CB01022EAE
S113008002C0880F991F0A94E2F7942F982B92BB11
S11300904FEF51EEE4E041505040E040E1F700C042
S11300A0000092B38095892382BB4FEF51EE84E028
S11300B0415050408040E1F700C000002F5F3F4FA7
S11300C028303105D1F612BA27E030E0CB01022EF8
S11300D002C0880F991F0A94E2F782BBEFEF41EE4A
S11300E054E0E15040405040E1F700C0000092B3BA
S11300F08095892382BB8FEF91EEE4E0815090409C
S1130100E040E1F700C0000021503109F8F6B3CF18
S1070110F894FFCF8D
S9030000FC
