:100000000C9434000C9449000C9449000C94490061
:100010000C9449000C9449000C9449000C9449003C
:100020000C9449000C9449000C9449000C9449002C
:100030000C9449000C9449000C9449000C9449001C
:100040000C9449000C9449000C9449000C9449000C
:100050000C9449000C9449000C9449000C944900FC
:100060000C9449000C94490011241FBECFEFD8E036
:10007000DEBFCDBF11E0A0E0B1E0E8EFF0E002C0EC
:1000800005900D92A030B107D9F70E945F000C9443
:100090007A000C9400001092C50083E38093C400A2
:1000A00088E18093C10086E08093C2000895E0EC6F
:1000B000F0E0908195FFFDCF8093C60008950E94E7
:1000C0004B008AE50E9457002FEF81EE94E021500B
:1000D00080409040E1F700C000008DE00E94570092
:1000E0002FEF81EE94E0215080409040E1F700C076
:0800F0000000E7CFF894FFCFF8
:00000001FF
