S00D000068656C6C6F2E7372656303
S11300000C942A000C9434000C9434000C943400A6
S11300100C9434000C9434000C9434000C9434008C
S11300200C9434000C9434000C9434000C9434007C
S11300300C9434000C9434000C9434000C9434006C
S11300400C9434000C9434000C9434000C9434005C
S11300500C94340011241FBECFE5D8E0DEBFCDBF21
S11300600E9436000C946E000C94000084B38FEF51
S113007084BB61E070E080E090E045B39B01082E12
S113008002C0220F331F0A94E2F7242B25BB2FEF63
S113009031EE44E0215030404040E1F700C0000020
S11300A001968830910549F787E090E035B3AB01BC
S11300B0082E02C0440F551F0A94E2F7242F2095FE
S11300C0232325BB2FEF31EE44E021503040404044
S11300D0E1F700C00000019748F7CDCFF894FFCFB7
S9030000FC
